{
  "contractName": "Transfer",
  "abi": [
    {
      "constant": false,
      "inputs": [
        {
          "internalType": "address payable",
          "name": "_ngo",
          "type": "address"
        }
      ],
      "name": "setTransaction",
      "outputs": [],
      "payable": true,
      "stateMutability": "payable",
      "type": "function"
    },
    {
      "constant": false,
      "inputs": [
        {
          "internalType": "address",
          "name": "_ngo",
          "type": "address"
        }
      ],
      "name": "getNGODonaterCount",
      "outputs": [
        {
          "internalType": "uint256[]",
          "name": "",
          "type": "uint256[]"
        }
      ],
      "payable": false,
      "stateMutability": "nonpayable",
      "type": "function"
    },
    {
      "constant": true,
      "inputs": [],
      "name": "getAllSenderAccount",
      "outputs": [
        {
          "internalType": "address[]",
          "name": "",
          "type": "address[]"
        }
      ],
      "payable": false,
      "stateMutability": "view",
      "type": "function"
    },
    {
      "constant": true,
      "inputs": [
        {
          "internalType": "address",
          "name": "_sender",
          "type": "address"
        }
      ],
      "name": "getAllInfoByAccount",
      "outputs": [
        {
          "components": [
            {
              "internalType": "uint256",
              "name": "count",
              "type": "uint256"
            },
            {
              "internalType": "address",
              "name": "ngo",
              "type": "address"
            }
          ],
          "internalType": "struct Transfer.Passbook[]",
          "name": "",
          "type": "tuple[]"
        }
      ],
      "payable": false,
      "stateMutability": "view",
      "type": "function"
    }
  ],
  "bytecode": "0x608060405234801561001057600080fd5b50610d3f806100206000396000f3fe60806040526004361061003f5760003560e01c806308341b6e146100445780632b4c0dcf1461006f57806353a5315c146100ac578063cdce11aa146100e9575b600080fd5b34801561005057600080fd5b50610059610105565b6040516100669190610b6f565b60405180910390f35b34801561007b57600080fd5b506100966004803603610091919081019061096e565b610193565b6040516100a39190610bb3565b60405180910390f35b3480156100b857600080fd5b506100d360048036036100ce919081019061096e565b610453565b6040516100e09190610b91565b60405180910390f35b61010360048036036100fe9190810190610997565b610550565b005b6060600180548060200260200160405190810160405280929190818152602001828054801561018957602002820191906000526020600020905b8160009054906101000a900473ffffffffffffffffffffffffffffffffffffffff1673ffffffffffffffffffffffffffffffffffffffff168152602001906001019080831161013f575b5050505050905090565b6060600260006101a391906108ce565b60008090505b6001805490508110156103fa5760008090505b600080600184815481106101cc57fe5b9060005260206000200160009054906101000a900473ffffffffffffffffffffffffffffffffffffffff1673ffffffffffffffffffffffffffffffffffffffff1673ffffffffffffffffffffffffffffffffffffffff168152602001908152602001600020805490508110156103ec578373ffffffffffffffffffffffffffffffffffffffff166000806001858154811061026357fe5b9060005260206000200160009054906101000a900473ffffffffffffffffffffffffffffffffffffffff1673ffffffffffffffffffffffffffffffffffffffff1673ffffffffffffffffffffffffffffffffffffffff16815260200190815260200160002082815481106102d357fe5b906000526020600020906002020160010160009054906101000a900473ffffffffffffffffffffffffffffffffffffffff1673ffffffffffffffffffffffffffffffffffffffff1614156103df5760026000806001858154811061033357fe5b9060005260206000200160009054906101000a900473ffffffffffffffffffffffffffffffffffffffff1673ffffffffffffffffffffffffffffffffffffffff1673ffffffffffffffffffffffffffffffffffffffff16815260200190815260200160002082815481106103a357fe5b90600052602060002090600202016000015490806001815401808255809150509060018203906000526020600020016000909192909190915055505b80806001019150506101bc565b5080806001019150506101a9565b50600280548060200260200160405190810160405280929190818152602001828054801561044757602002820191906000526020600020905b815481526020019060010190808311610433575b50505050509050919050565b60606000808373ffffffffffffffffffffffffffffffffffffffff1673ffffffffffffffffffffffffffffffffffffffff168152602001908152602001600020805480602002602001604051908101604052809291908181526020016000905b828210156105455783829060005260206000209060020201604051806040016040529081600082015481526020016001820160009054906101000a900473ffffffffffffffffffffffffffffffffffffffff1673ffffffffffffffffffffffffffffffffffffffff1673ffffffffffffffffffffffffffffffffffffffff1681525050815260200190600101906104b3565b505050509050919050565b600080905060008090505b6000803373ffffffffffffffffffffffffffffffffffffffff1673ffffffffffffffffffffffffffffffffffffffff1681526020019081526020016000208054905081101561071f578273ffffffffffffffffffffffffffffffffffffffff166000803373ffffffffffffffffffffffffffffffffffffffff1673ffffffffffffffffffffffffffffffffffffffff168152602001908152602001600020828154811061060457fe5b906000526020600020906002020160010160009054906101000a900473ffffffffffffffffffffffffffffffffffffffff1673ffffffffffffffffffffffffffffffffffffffff1614156107125760019150346000803373ffffffffffffffffffffffffffffffffffffffff1673ffffffffffffffffffffffffffffffffffffffff16815260200190815260200160002082815481106106a057fe5b906000526020600020906002020160000154016000803373ffffffffffffffffffffffffffffffffffffffff1673ffffffffffffffffffffffffffffffffffffffff16815260200190815260200160002082815481106106fc57fe5b9060005260206000209060020201600001819055505b808060010191505061055b565b5060018114610883576107306108ef565b60405180604001604052803481526020018473ffffffffffffffffffffffffffffffffffffffff1681525090506000803373ffffffffffffffffffffffffffffffffffffffff1673ffffffffffffffffffffffffffffffffffffffff16815260200190815260200160002081908060018154018082558091505090600182039060005260206000209060020201600090919290919091506000820151816000015560208201518160010160006101000a81548173ffffffffffffffffffffffffffffffffffffffff021916908373ffffffffffffffffffffffffffffffffffffffff16021790555050505060013390806001815401808255809150509060018203906000526020600020016000909192909190916101000a81548173ffffffffffffffffffffffffffffffffffffffff021916908373ffffffffffffffffffffffffffffffffffffffff16021790555050505b8173ffffffffffffffffffffffffffffffffffffffff166108fc349081150290604051600060405180830381858888f193505050501580156108c9573d6000803e3d6000fd5b505050565b50805460008255906000526020600020908101906108ec919061091f565b50565b604051806040016040528060008152602001600073ffffffffffffffffffffffffffffffffffffffff1681525090565b61094191905b8082111561093d576000816000905550600101610925565b5090565b90565b60008135905061095381610cce565b92915050565b60008135905061096881610ce5565b92915050565b60006020828403121561098057600080fd5b600061098e84828501610944565b91505092915050565b6000602082840312156109a957600080fd5b60006109b784828501610959565b91505092915050565b60006109cc8383610a08565b60208301905092915050565b60006109e48383610b31565b60408301905092915050565b60006109fc8383610b60565b60208301905092915050565b610a1181610c80565b82525050565b6000610a2282610c05565b610a2c8185610c4d565b9350610a3783610bd5565b8060005b83811015610a68578151610a4f88826109c0565b9750610a5a83610c26565b925050600181019050610a3b565b5085935050505092915050565b6000610a8082610c10565b610a8a8185610c5e565b9350610a9583610be5565b8060005b83811015610ac6578151610aad88826109d8565b9750610ab883610c33565b925050600181019050610a99565b5085935050505092915050565b6000610ade82610c1b565b610ae88185610c6f565b9350610af383610bf5565b8060005b83811015610b24578151610b0b88826109f0565b9750610b1683610c40565b925050600181019050610af7565b5085935050505092915050565b604082016000820151610b476000850182610b60565b506020820151610b5a6020850182610a08565b50505050565b610b6981610cc4565b82525050565b60006020820190508181036000830152610b898184610a17565b905092915050565b60006020820190508181036000830152610bab8184610a75565b905092915050565b60006020820190508181036000830152610bcd8184610ad3565b905092915050565b6000819050602082019050919050565b6000819050602082019050919050565b6000819050602082019050919050565b600081519050919050565b600081519050919050565b600081519050919050565b6000602082019050919050565b6000602082019050919050565b6000602082019050919050565b600082825260208201905092915050565b600082825260208201905092915050565b600082825260208201905092915050565b6000610c8b82610ca4565b9050919050565b6000610c9d82610ca4565b9050919050565b600073ffffffffffffffffffffffffffffffffffffffff82169050919050565b6000819050919050565b610cd781610c80565b8114610ce257600080fd5b50565b610cee81610c92565b8114610cf957600080fd5b5056fea365627a7a723158203c131a44ff8bebbf46b86122f17f6457342bf8123ac746a03954a9473db4f2966c6578706572696d656e74616cf564736f6c63430005100040",
  "source": "pragma solidity >=0.5.0;\npragma experimental ABIEncoderV2;\n\ncontract Transfer{\n\n    struct Passbook{\n        uint256 count;\n        address ngo;\n    }\n    mapping (address => Passbook[]) Passbooks ;\n    address[] senderaccounts;\n    uint256[] sum;\n    function setTransaction(address payable _ngo) public payable{\n        uint256 c = 0;\n        for(uint256 i = 0;i<Passbooks[msg.sender].length;i++){\n            if(Passbooks[msg.sender][i].ngo == _ngo){\n                c = 1;\n                Passbooks[msg.sender][i].count = Passbooks[msg.sender][i].count + msg.value;\n            }}\n            if(c!=1){\n                 Passbook memory newEntry = Passbook(msg.value,_ngo);\n                Passbooks[msg.sender].push(newEntry);\n                senderaccounts.push(msg.sender);\n            }\n        _ngo.transfer(msg.value);\n    }\n\n    function getNGODonaterCount(address _ngo) public returns(uint[] memory){\n           delete sum;\n           for(uint i = 0;i < senderaccounts.length;i++){\n            for(uint j = 0;j < Passbooks[senderaccounts[i]].length;j++){\n                if(Passbooks[senderaccounts[i]][j].ngo==_ngo){\n                    sum.push(Passbooks[senderaccounts[i]][j].count);\n                }\n            }\n        }\n        return sum;\n    }\n   function getAllSenderAccount() public view returns(address[] memory){\n        return (senderaccounts);\n    }\n    function getAllInfoByAccount(address _sender) public view returns(Passbook[] memory){\n        return Passbooks[_sender];\n    }\n\n}",
  "sourcePath": "D:\\UniNotes\\Dissertation\\DaanVeer\\DaanVeer-master\\Blockchain\\contracts\\Transfer.sol",
  "compiler": {
    "name": "solc",
    "version": "0.5.16+commit.9c3226ce.Emscripten.clang"
  },
  "schemaVersion": "3.4.4",
  "updatedAt": "2022-07-11T14:24:51.763Z",
  "networkType": "ethereum",
  "devdoc": {
    "methods": {}
  },
  "userdoc": {
    "methods": {}
  }
}